:100000000C946A0D0C94920D0C94920D0C94920D1C
:100010000C94920D0C94920D0C94920D0C94920DE4
:100020000C94920D0C94920D0C94BC130C942B1404
:100030000C94920D0C94920D0C94920D0C94920DC4
:100040000C94920D0C94920D0C94920D0C94920DB4
:100050000C94920D0C94920D0C94920D0C945D16D0
:100060000C94920D0C94920D0C94920D0C94920D94
:100070000C94920D0C94920D0C94920D0C94920D84
:100080000C94920D0C94920D0C94920D0C94920D74
:100090000C94920D0C94920D0C94920D0C94920D64
:1000A0000C94920D0C94920D0C94920D596F752036
:1000B000646F6E2774206861766520746F206265B6
:1000C00020617368616D6564206F66207573696E69
:1000D0006720796F7572206F776E20696465617330
:1000E00000596F752063616E206F6E6C79206D61B1
:1000F0006B65206F6E6520646F74206174206120D1
:1001000074696D6500596F752061726520616E209C
:10011000656E67696E65657200576F756C64206106
:100120006E79626F64792077616E742069743F0024
:10013000576F726B20617420612064696666657216
:10014000656E742073706565640057686963682024
:1001500070617274732063616E2062652067726FD4
:10016000757065643F005768657265206973207417
:10017000686520656467653F005768656E20697330
:1001800020697420666F723F005768617420776F32
:10019000756C646E277420796F7520646F3F00570B
:1001A00068617420776F756C6420796F7572206355
:1001B0006C6F7365737420667269656E6420646F1A
:1001C0003F005768617420746F20696E63726561C7
:1001D00073653F205768617420746F207265647581
:1001E00063653F205768617420746F206D61696E8C
:1001F0007461696E3F0057686174206D6973746142
:100200006B65732064696420796F75206D616B651F
:10021000206C6173742074696D653F005768617468
:10022000206973207468652073696D706C657374E0
:1002300020736F6C7574696F6E3F0057686174202E
:10024000697320746865207265616C697479206FC8
:10025000662074686520736974756174696F6E3F98
:10026000005768617420636F6E7465787420776FCF
:10027000756C64206C6F6F6B2072696768743F00E7
:10028000576861742061726520796F7520726561AD
:100290006C6C79207468696E6B696E672061626F3F
:1002A0007574206A757374206E6F773F00576861AC
:1002B0007420617265207468652073656374696F6A
:1002C0006E732073656374696F6E73206F663F2071
:1002D000496D6167696E6520612063617465727044
:1002E000696C6C6172206D6F76696E6700566F691C
:1002F000636520796F757220737573706963696FB8
:100300006E73005573652027756E7175616C696633
:10031000696564272070656F706C65005573652092
:10032000736F6D657468696E67206E65617262795E
:100330002061732061206D6F64656C0055736520CA
:1003400066696C74657273005573652066657765C0
:1003500072206E6F7465730055736520616E207531
:100360006E61636365707461626C6520636F6C6F4E
:10037000720055736520616E206F6C64206964653E
:100380006100547769737420746865207370696EB6
:1003900065005475726E20697420757073696465A8
:1003A00020646F776E005472792066616B696E67A6
:1003B00020697400547275737420696E20746865C6
:1003C00020796F75206F66206E6F77004D6F7665B0
:1003D00020746F77617264732074686520756E692C
:1003E0006D706F7274616E740054696479207570F9
:1003F000005468696E6B202D20696E7369646520F6
:1004000074686520776F726B202D206F7574736927
:1004100064652074686520776F726B00546865208E
:1004200074617065206973206E6F77207468652031
:100430006D7573696300546865206D6F7374206512
:100440006173696C7920666F72676F7474656E2072
:100450007468696E6720697320746865206D6F73B6
:100460007420696D706F7274616E740054686520D9
:10047000696E636F6E73697374656E6379207072F1
:10048000696E6369706C65005461706520796F7581
:1004900072206D6F7574680054616B6520617761BF
:1004A000792074686520696D706F7274616E742054
:1004B00070617274730054616B652061776179209B
:1004C00074686520656C656D656E747320696E2057
:1004D0006F72646572206F66206170706172656E04
:1004E00074206E6F6E2D696D706F7274616E6365CE
:1004F0000054616B65206120627265616B0053740A
:10050000617465207468652070726F626C656D201F
:10051000617320636C6561726C7920617320706F08
:10052000737369626C6500537065637472756D20D6
:10053000616E616C7973697300536C6F77207072B0
:10054000657061726174696F6E2C206661737420CE
:10055000657865637574696F6E0053696D706C7949
:100560002061206D6174746572206F6620776F72F0
:100570006B0053696D706C65207375627472616392
:1005800074696F6E0053686F72742063697263756B
:1005900069740052657665727365005265657661AF
:1005A0006C756174696F6E202861207761726D20AF
:1005B0006665656C696E6729005265747261636572
:1005C00020796F7572207374657073005265706561
:1005D000746974696F6E206973206120666F726D33
:1005E000206F66206368616E67650052656D6F7687
:1005F000652073706563696669637320616E64204A
:10060000636F6E7665727420746F20616D626967C6
:100610007569746965730052656D6F766520616DEB
:1006200062696775697469657320616E6420636FC0
:100630006E7665727420746F207370656369666985
:1006400063730052656D656D6265722074686F73C7
:1006500065207175696574206576656E696E67736E
:10066000005175657374696F6E20746865206865E4
:10067000726F696320617070726F616368004F769A
:100680006572746C79207265736973742063686134
:100690006E6765004F6E6C79206F6E6520656C65C6
:1006A0006D656E74206F662065616368206B696E8E
:1006B00064004F6E6C79206120706172742C206E22
:1006C0006F74207468652077686F6C65004F6E6387
:1006D00065207468652073656172636820697320A2
:1006E000696E2070726F67726573732C20736F6D03
:1006F000657468696E672077696C6C206265206636
:100700006F756E64004E6F74206275696C64696EFB
:100710006720612077616C6C20627574206D616B5D
:10072000696E67206120627269636B004D75746544
:1007300020616E6420636F6E74696E7565004D652F
:100740006368616E6963616C697A6520736F6D655A
:100750007468696E67206964696F73796E6372612A
:10076000746963004D616B65206974206D6F7265FB
:100770002073656E7375616C004D616B6520616EF1
:100780002065786861757374697665206C69737427
:10079000206F662065766572797468696E67207966
:1007A0006F75206D6967687420646F20616E6420C6
:1007B000646F20746865206C617374207468696E5E
:1007C00067206F6E20746865206C697374004D61DA
:1007D0006B6520612073756464656E2C206465739D
:1007E000747275637469766520756E70726564697C
:1007F000637461626C6520616374696F6E3B20692C
:100800006E636F72706F72617465004D616B65200D
:100810006120626C616E6B2076616C7561626C65E3
:100820002062792070757474696E6720697420691C
:100830006E20616E206578717569736974652066D4
:1008400072616D65004D61676E69667920746865D7
:10085000206D6F737420646966666963756C7420BB
:1008600064657461696C73004C6F776573742063A1
:100870006F6D6D6F6E2064656E6F6D696E61746F04
:1008800072004C6F737420696E207573656C6573AC
:1008900073207465727269746F7279004C6F6F6B3C
:1008A00020636C6F73656C792061742074686520B7
:1008B0006D6F737420656D62617272617373696EBE
:1008C000672064657461696C73202620616D706CAB
:1008D000696679207468656D004C6F6F6B20617478
:1008E00020746865206F7264657220696E20776875
:1008F00069636820796F7520646F207468696E671A
:1009000073004C697374656E20746F207468652081
:10091000717569657420766F696365004C656674EE
:10092000206368616E6E656C2C2072696768742044
:100930006368616E6E656C2C2063656E74657220F1
:100940006368616E6E656C004A75737420636172D2
:100950007279206F6E0049742069732073696D701D
:100960006C792061206D6174746572206F662077E8
:100970006F726B004974206973207175697465200A
:10098000706F737369626C6520286166746572208C
:10099000616C6C2900497320736F6D657468696EB2
:1009A00067206D697373696E673F004973207468CF
:1009B000652074756E696E6720617070726F7072F9
:1009C000696174653F0049732074686520737479A8
:1009D0006C652072696768743F00497320746865AC
:1009E00020696E746F6E6174696F6E20636F7272CE
:1009F0006563743F0049732069742066696E69738A
:100A00006865643F00496E746F2074686520696D85
:100A1000706F737369626C6500496E74656E74699A
:100A20006F6E73202D20637265646962696C6974EE
:100A300079206F66202D206E6F62696C6974792051
:100A40006F66202D2068756D696C697479206F66FA
:100A500000496E66696E69746573696D616C2067C3
:100A60007261646174696F6E7300496E20746F7493
:100A7000616C206461726B6E6573732C206F7220E1
:100A8000696E20612076657279206C6172676520DD
:100A9000726F6F6D2C20766572792071756965743F
:100AA0006C7900496D6167696E6520746865206DB9
:100AB00075736963206173206120736574206F66AC
:100AC00020646973636F6E6E656374656420657618
:100AD000656E7473004D616B652077686174277370
:100AE0002070657266656374206D6F72652068752D
:100AF0006D616E00486F7720776F756C6420796F39
:100B000075206861766520646F6E652069743F00AA
:100B1000486F7720776F756C6420736F6D656F6EAB
:100B20006520656C736520646F2069743F00486FB1
:100B30006E6F7220746879206572726F72206173B3
:100B400020612068696464656E20696E74656E74E6
:100B5000696F6E00476F20746F20616E2065787436
:100B600072656D652C206D6F7665206261636B2008
:100B7000746F2061206D6F726520636F6D666F7298
:100B80007461626C6520706C61636500476F2073EF
:100B90006C6F776C7920616C6C207468652077616C
:100BA0007920726F756E6420746865206F75747338
:100BB00069646500476F206F7574736964652E20E2
:100BC000536875742074686520646F6F720047699C
:100BD00076652077617920746F20796F7572207740
:100BE0006F72737420696D70756C736500476976F8
:100BF0006520746865206E616D652061776179009C
:100C000047697665207468652067616D6520617746
:100C100061790047686F7374206563686F6573005E
:100C200047657420796F7572206E65636B206D6106
:100C30007373616765640046726F6D206E6F7468D0
:100C4000696E6720746F206D6F7265207468616EC5
:100C5000206E6F7468696E670046696C6C206576FB
:100C60006572792062656174207769746820736F9A
:100C70006D657468696E67004665656420746865B3
:100C8000207265636F7264696E67206261636B20B6
:100C90006F7574206F6620746865206D6564697572
:100CA0006D00466163656420776974682061206324
:100CB000686F6963652C20646F20626F74680045FB
:100CC0006D70686173697A652074686520666C610F
:100CD000777300456D70686173697A65207265701D
:100CE00065746974696F6E7300456D7068617369CE
:100CF0007A6520646966666572656E636573004433
:100D00006F6E277420737472657373206F6E652025
:100D10007468696E67206D6F7265207468616E20FB
:100D2000616E6F7468657200446F6E277420627222
:100D300065616B207468652073696C656E6365001E
:100D4000446F6E27742062652066726967687465F7
:100D50006E656420746F20646973706C61792079AA
:100D60006F75722074616C656E747300446F6E27CA
:100D70007420626520667269676874656E656420B8
:100D80006F6620636C696368657300446F6E2774D7
:100D900020626520616672616964206F66207468F4
:100DA000696E677320626563617573652074686539
:100DB00079277265206561737920746F20646F00F4
:100DC000446F207765206E65656420686F6C65737D
:100DD0003F00446F2074686520776F726473206EE3
:100DE000656564206368616E67696E673F00446F84
:100DF000207468652077617368696E67207570007C
:100E0000446F20746865206C617374207468696E27
:100E10006720666972737400446F20736F6D657428
:100E200068696E672073756464656E2C20646573F1
:100E3000747275637469766520616E6420756E7076
:100E400072656469637461626C6500446F20736FDE
:100E50006D657468696E6720626F72696E670044C1
:100E60006F206E6F7468696E6720666F72206173A1
:100E7000206C6F6E6720617320706F737369626C92
:100E80006500446973746F72742074696D65004401
:100E90006973636F76657220746865207265636933
:100EA00070657320796F7520617265207573696E46
:100EB0006720616E64206162616E646F6E20746889
:100EC000656D00446973636F6E6E6563742066724E
:100ED0006F6D20646573697265004469736369703E
:100EE0006C696E65642073656C662D696E64756CE3
:100EF00067656E6365004469736361726420616E47
:100F0000206178696F6D0044657374726F79202D6C
:100F1000206E6F7468696E67202D20746865206D7F
:100F20006F737420696D706F7274616E7420746871
:100F3000696E6700446566696E6520616E20617246
:100F40006561206173207361666520616E64207540
:100F5000736520697420617320616E20616E63681F
:100F60006F72004465636F726174652C2064656301
:100F70006F726174650043757420612076697461D5
:100F80006C20636F6E6E656374696F6E00436F757E
:100F9000726167652100436F6E766572742061200F
:100FA0006D656C6F64696320656C656D656E74203A
:100FB000696E746F20612072687974686D6963204E
:100FC000656C656D656E7400436F6E73756C74202F
:100FD0006F7468657220736F7572636573202D205E
:100FE00070726F6D6973696E67202D20756E7072F7
:100FF0006F6D6973696E6700436F6E7369646572C4
:10100000207472616E736974696F6E7300436C75DE
:101010007374657220616E616C79736973004368E3
:10102000696C6472656E277320766F6963657320DF
:101030002D20737065616B696E67202D2073696E5A
:1010400067696E67004368616E6765206E6F7468DC
:10105000696E6720616E6420636F6E74696E75657A
:10106000207769746820696D6D6163756C61746562
:1010700020636F6E73697374656E63790043686192
:101080006E676520696E737472756D656E7420721B
:101090006F6C65730042726964676573202D20620E
:1010A00075696C64202D206275726E0042726561F4
:1010B000746865206D6F726520646565706C790079
:1010C0004265206C65737320637269746963616C37
:1010D000004265206578747261766167616E7400A4
:1010E00042652064697274790042616C616E636567
:1010F0002074686520636F6E73697374656E6379BD
:10110000207072696E6369706C65207769746820FD
:1011100074686520696E636F6E73697374656E635E
:1011200079207072696E6369706C650041737365D4
:101130006D626C6520736F6D65206F6620746865E5
:1011400020656C656D656E747320696E2061206723
:10115000726F757020616E642074726561742074A2
:1011600068652067726F75700041736B20796F75C9
:101170007220626F64790041736B2070656F706CD0
:101180006520746F20776F726B20616761696E7381
:101190007420746865697220626574746572206A6F
:1011A0007564676D656E7400417265207468657260
:1011B000652073656374696F6E733F20436F6E7350
:1011C00069646572207472616E736974696F6E739D
:1011D00000416C77617973206769766520796F7556
:1011E0007273656C662063726564697420666F72E1
:1011F00020686176696E67206D6F72652074686122
:101200006E20706572736F6E616C69747900416CE9
:101210007761797320666972737420737465707373
:101220000052656D6F766520612072657374726916
:101230006374696F6E00416464696E67206F6E004D
:10124000416363657074206164766963650041621F
:10125000616E646F6E206E6F726D616C20696E736B
:101260007472756D656E74730041207665727920B5
:10127000736D616C6C206F626A656374202D2069E8
:1012800074732063656E7472650041206C696E65CD
:10129000206861732074776F207369646573002818
:1012A0004F7267616E696329206D616368696E655D
:1012B00072790000000000003E5B4F5B3E3E6B4FCA
:1012C0006B3E1C3E7C3E1C183C7E3C181C577D57D8
:1012D0001C1C5E7F5E1C00183C1800FFE7C3E7FF84
:1012E0000018241800FFE7DBE7FF30483A060E2617
:1012F00029792926407F050507407F05253F5A3C6F
:10130000E73C5A7F3E1C1C08081C1C3E7F14227FB1
:1013100022145F5F005F5F06097F017F0066899589
:101320006A606060606094A2FFA29408047E040872
:1013300010207E201008082A1C08081C2A08081EF5
:10134000101010100C1E0C1E0C30383E3830060EDB
:101350003E0E06000000000000005F0000000700D5
:101360000700147F147F14242A7F2A122313086491
:101370006236495620500008070300001C22410035
:101380000041221C002A1C7F1C2A08083E08080075
:101390008070300008080808080000606000201015
:1013A0000804023E5149453E00427F4000724949CF
:1013B00049462141494D331814127F1027454545B0
:1013C000393C4A49493141211109073649494936D1
:1013D000464949291E000014000000403400000066
:1013E0000814224114141414140041221408020198
:1013F0005909063E415D594E7C1211127C7F4949C4
:1014000049363E414141227F4141413E7F49494960
:10141000417F090909013E414151737F0808087F56
:1014200000417F41002040413F017F081422417F5D
:10143000404040407F021C027F7F0408107F3E41F5
:1014400041413E7F090909063E4151215E7F09194C
:101450002946264949493203017F01033F40404064
:101460003F1F2040201F3F4038403F631408146353
:1014700003047804036159494D43007F414141020F
:1014800004081020004141417F0402010204404051
:10149000404040000307080020545478407F28440F
:1014A00044383844444428384444287F38545454F9
:1014B0001800087E090218A4A49C787F0804047808
:1014C00000447D40002040403D007F102844000043
:1014D000417F40007C047804787C08040478384418
:1014E000444438FC1824241818242418FC7C0804CC
:1014F0000408485454542404043F44243C404020ED
:101500007C1C2040201C3C4030403C442810284497
:101510004C9090907C4464544C4400083641000048
:1015200000770000004136080002010204023C2658
:1015300023263C1EA1A161123A4040207A3854541F
:1015400055592155557941215454784121555478A4
:101550004020545579400C1E527212395555555938
:10156000395454545939555454580000457C41005D
:1015700002457D420001457C40F0292429F0F028F5
:101580002528F07C545545002054547C547C0A098D
:101590007F4932494949323248484832324A4848FC
:1015A000303A4141217A3A42402078009DA0A07D06
:1015B00039444444393D4040403D3C24FF242448C4
:1015C0007E4943662B2FFC2F2BFF0929F620C0886C
:1015D0007E090320545479410000447D413048483D
:1015E0004A32384040227A007A0A0A727D0D193157
:1015F0007D2629292F28262929292630484D4020B3
:10160000380808080808080808382F10C8ACBA2F8E
:10161000102834FA00007B000008142A1422221437
:101620002A14089500220095AA005500AAAA55AAD6
:1016300055AA000000FF00101010FF00141414FF42
:10164000001010FF00FF1010F010F0141414FC0034
:101650001414F700FF0000FF00FF1414F404FC143E
:101660001417101F10101F101F1414141F00101037
:1016700010F0000000001F101010101F10101010AC
:10168000F010000000FF101010101010101010FFCC
:1016900010000000FF140000FF00FF00001F1017E3
:1016A0000000FC04F414141710171414F404F400CC
:1016B00000FF00F714141414141414F700F7141492
:1016C00014171410101F101F141414F4141010F019
:1016D00010F000001F101F0000001F14000000FC8D
:1016E000140000F010F01010FF10FF141414FF1479
:1016F0001010101F00000000F010FFFFFFFFFFF0B0
:10170000F0F0F0F0FFFFFF0000000000FFFF0F0F00
:101710000F0F0F38444438447C2A2A3E147E0202BC
:101720000606027E027E0263554941633844443C0A
:1017300004407E201E2006027E020299A5E7A5999C
:101740001C2A492A1C4C7201724C304A4D4D3030D3
:1017500048784830BC625A463D3E494949007E01BE
:1017600001017E2A2A2A2A2A44445F444440514ADD
:10177000444040444A51400000FF0103E080FF0024
:101780000008086B6B083612362436060F090F0660
:10179000000018180000001010003040FF01010088
:1017A0001F01011E00191D1712003C3C3C3C0000AB
:1017B00000000000B00000A170E150964F26900F8D
:1017C0001D070C009669004AE44A00484440008026
:1017D0006810000F99FB8F9DBDBBFB77D4D4DF1F32
:1017E0001A1AFE7F5D5DFF805A0000A0A4AA0010B7
:1017F000BA3400FF5953F3FF9B9B9EFFB9B996FF84
:101800009595D19FF4940FFC295F91FF1838F8FF4C
:101810009294FFFF95D5F7BFB5DDD7F18F81F1F732
:1018200088C8F779C6467909FD9B090196F80082B8
:10183000818280507162007756560076763700A21A
:10184000B77301077206007827500073347400776D
:101850005176007F55F700477110003247720073D0
:1018600064730015A2750061679400009F6060F4C6
:10187000F2F6F2F0F89C8E8783878E9CF8F00000D9
:10188000FEFF0303030303070EFCF80000FEFF0343
:1018900003030303070EFCF80000FFFF0000000035
:1018A000000000FFFF0000FEFF8383838383C7EEF9
:1018B0007C380000F8FC0E07030303070EFCF80059
:1018C000003F7FE0C08080C0E07F3FFFFF0101015B
:1018D00001010101FFFF0000FFFF0C0C0C0C1C3E7E
:1018E00077E3C100007FFFC0C0C0C0C0E0703F1FF1
:1018F00000001F3F70E0C0C0C0E0703F1F00007FCD
:10190000FFC1C1C1C1C1E3773E1C00001F3F70E0B1
:10191000C0C0C0E0703F1F000000000001FFFF01D9
:10192000000000D5F08D14A1C881CFD9F1AF2000FF
:101930009F128A1269124E124012361221120E1292
:10194000D111A811771169112C11E910E010D110F3
:10195000C010AC1095107D1045101E100D10F80F22
:10196000C80F960F8D0F760F630F340F070FF60E0B
:10197000DA0EC30E8F0E820E5F0E4B0E180E000E87
:10198000EE0DD20DC00D8B0D6C0D400D280DFF0C12
:10199000E90CD30CBF0CA20C780C590C370C200CA2
:1019A000130C000CED0BCE0BB40B8C0B540B2E0B4D
:1019B000100BF40AD50AA30A6A0A510A190A050A81
:1019C000F509DA09C609AB099509740956094809E8
:1019D0001C090209D9089C088208680845080B08F8
:1019E000CE07790764073E072C070507CD06B20628
:1019F00094067E06610643061706EB05CC05B9057D
:101A00009B059305850572055A0539052705FE04D2
:101A1000F104B604980488046C0436041C04F10331
:101A2000E903CC03B403A6039203820372035803B1
:101A300048033C031C030303ED02AD028002610274
:101A40003B021C02F601C2019F0189017901660176
:101A50004A01300119010501E100AC00080B000248
:101A60000202010009040000010202000005240036
:101A700010010524010101042402060524060001C9
:101A80000705810310004009040100020A0000005C
:101A9000070502024000000705830240000004031E
:101AA000090412010002EF020140412336800001C7
:101AB0000102030141726475696E6F204C4C430052
:101AC00041726475696E6F204C656F6E6172646FF0
:101AD00000001F1711241FBECFEFDAE0DEBFCDBF1D
:101AE00012E0A0E0B1E0E0E8FCE302C005900D9256
:101AF000AE32B107D9F727E0AEE2B2E001C01D92E5
:101B0000A333B207E1F71DE0CAE6DDE004C0219788
:101B1000FE010E94281EC936D107C9F70E9472171C
:101B20000C943E1E0C940000E7E0F3E0A0E0B8E067
:101B300000800EBC8111012C1197A0FDFDCF0192F8
:101B4000B9F70DB4089590912607982329F0909144
:101B50002507982381E009F080E00895FC01809139
:101B6000B602882311F13FB7F89482E08093E90030
:101B70002091F200822F90E01816190614F481E0EB
:101B800090E0882339F0289844E64093B5024091CC
:101B9000F1004083222339F02091F200211103C08B
:101BA0002BE62093E8003FBF08958FEF9FEF089545
:101BB0002FB7F89483E08093E9009091E800892F93
:101BC000807295FF04C09091F20080E4891B2FBFC2
:101BD00008958091AD0281110DC082E08093A90229
:101BE00084E08093AA021092AC021092AB0281E0D2
:101BF0008093AD0289EA92E00895CF93DF931F921C
:101C0000CDB7DEB76983DC01ED91FC910280F381F1
:101C1000E02D41E050E0BE016F5F7F4F09950F90CE
:101C2000DF91CF91089583E08093E9008091F200E5
:101C3000882319F08AE38093E80008950E94D80D64
:101C400090E00895CF93DF931F92CDB7DEB7FC01EC
:101C50008485958597FD08C02FEF3FEF3587248752
:101C60000F90DF91CF910895CE0101960E94AE0DA5
:101C7000019719F4898190E0F3CF8FEF9FEFF0CFB8
:101C80000F931F93CF93DF931F92CDB7DEB78C01D5
:101C9000FC018485958597FF0BC0CE0101960E94BB
:101CA000AE0D019771F4898190E0F80195878487E2
:101CB000F801848595850F90DF91CF911F910F9149
:101CC00008958FEF9FEFF1CFFC018485958597FDF7
:101CD0000BC09FB7F89482E08093E9008091F200F6
:101CE0009FBF90E0019608959FB7F89482E080939B
:101CF000E9008091F2009FBF90E008954091A30217
:101D00005091A4022091A1023091A20242175307E0
:101D1000B4F49091E8009570E1F39091E80092FDA1
:101D200019C08093F1008091A3029091A4020196C2
:101D30008F739927892B19F48EEF8093E800809197
:101D4000A3029091A40201969093A4028093A3020F
:101D500081E0089580E00895DF92EF92FF920F9363
:101D60001F93CF93DF93D82E8A01EB017B01E40E02
:101D7000F51ECE15DF0559F0D7FE12C0FE01849185
:101D80000E947E0E21968111F4CF0FEF1FEFC80144
:101D9000DF91CF911F910F91FF90EF90DF90089509
:101DA0008881EECF0F931F93CF93DF931F92CDB710
:101DB000DEB782E0898342E450E06CE57AE180E8B6
:101DC0000E94AC0E0E94E90DDC0112960D911C914F
:101DD0000115110589F0D801ED91FC910280F38184
:101DE000E02DBE016F5F7F4FC801099597FD04C0CC
:101DF000F80100851185ECCF89810F90DF91CF919B
:101E00001F910F910895615030F02091F100FC0175
:101E100020830196F8CF289884E68093B502089530
:101E2000AF92BF92CF92DF92EF92FF920F931F93E8
:101E3000CF93DF936C017B018B01040F151FEB0126
:101E40005E01AE18BF08C017D10759F06991D601DD
:101E5000ED91FC910190F081E02DC6010995892B4F
:101E600079F7C501DF91CF911F910F91FF90EF900E
:101E7000DF90CF90BF90AF9008953FB7F8948091D6
:101E80002F0290913002A0913102B091320226B51A
:101E9000A89B05C02F3F19F00196A11DB11D3FBFA2
:101EA000BA2FA92F982F8827BC01CD01620F711D71
:101EB000811D911D42E0660F771F881F991F4A956B
:101EC000D1F708958F929F92AF92BF92CF92DF92F7
:101ED000EF92FF926B017C010E943D0F4B015C0170
:101EE000C114D104E104F104B9F00E943D0F681956
:101EF00079098A099B09683E73408105910580F341
:101F000021E0C21AD108E108F10888EE880E83E0CA
:101F1000981EA11CB11CE4CFFF90EF90DF90CF90F2
:101F2000BF90AF909F908F9008958F929F92AF92A5
:101F3000BF92CF92DF92EF92FF920F931F93CF93B6
:101F4000DF936C017B018A0180911501882309F4DC
:101F50005CC08091B602882309F457C08091A80222
:101F600080FF05C08091E00082608093E000E8017E
:101F7000B12C8AEFA82E93E0892E2AE3922E209787
:101F800011F4BB20D9F10E94D80D81110AC0AA9486
:101F9000AA20D9F161E070E080E090E00E94620F39
:101FA000EECF8C171D0611F00CF08C2F9FB7F89414
:101FB0008092E9002091E80025FD02C09FBFDFCF9D
:101FC000282F30E0C21BD30BF701815020F0419144
:101FD0004093F100FACFE20EF31EBB2021F0909265
:101FE000E800B12CEBCF8091E80085FDE7CF90921F
:101FF000E800BB24B394209709F3F3CF5D9884E6FF
:102000008093A702101611063CF081E090E0F601E3
:102010009383828310E000E0C801DF91CF911F918C
:102020000F91FF90EF90DF90CF90BF90AF909F9077
:102030008F9008956F927F928F929F92AF92BF92EE
:10204000CF92DF92EF92FF920F931F93CF93DF9384
:102050004C017B01C22F102F98E0A92EB12C642EC9
:10206000669466946694712CCA0187709927892BAF
:1020700079F5D40117962D913C91C7019927B901A3
:102080000E94001E269DF001279DF00D369DF00D4B
:1020900011248E0F9F1FD4011596ED91FC91E80F2E
:1020A000F91F2081111112C0C095C223C083DF9196
:1020B000CF911F910F91FF90EF90DF90CF90BF9045
:1020C000AF909F908F907F906F900895C22BEECF2E
:1020D000D0E04770C42ED12C83E0660C771C8A9523
:1020E000E1F79E0101C0220F4A95EAF7012FA301F3
:1020F000B701C4010E941A10A301485F5F4FC501D8
:102100008C199D0902C0D595C7958A95E2F7A7CF8E
:102110005F926F927F928F929F92AF92BF92CF9277
:10212000DF92EF92FF920F931F93CF93DF93EC0117
:102130006A30F1F48D859E859C878B878C892F85ED
:102140003889820F932F911D988B8F8781E090E0C3
:10215000DF91CF911F910F91FF90EF90DF90CF9083
:10216000BF90AF909F908F907F906F905F900895F9
:10217000AB84BC84693031F429E0A20EB11CBC866A
:10218000AB86E4CF3DEFA3163FEFB3060CF45DC082
:102190008F819885A816B9060CF057C0CF84D888CF
:1021A0008DEFC8168FEFD8060CF44FC089859A853D
:1021B000C816D9060CF049C0603208F46FE780EE0B
:1021C000860F9FE9960F9A3118F49FEFC91AD90A22
:1021D0008C3011F08B3119F42FEFC21AD20A869588
:1021E00034E0839FC00111249C012D54384E7901A5
:1021F000912C812C162F1170F701E80DF91D5490C8
:1022000011112DC0352D3F70532E3501680C791CEE
:102210008C81882361F001E089899A89892B09F0F2
:1022200000E02FE0A601B301CE010E941A10098937
:10223000252DA601B301CE010E941A108FEF881A36
:10224000980A94E089169104B9F68B8990E0049677
:102250002B853C85820F931F9C878B8777CF529469
:102260008FE05822D2CF2D9A0895BC0190E080E0F3
:102270000C94620F8FB18095807F669B88601C9B59
:102280008460089520E191E061FD94E060FD990F84
:1022900062FD9295687F269FD0011124A80FA95F47
:1022A000BC4F8C9140FF03C0892B8C93089590956F
:1022B0008923FBCF2F923F924F925F926F927F9232
:1022C0008F929F92AF92BF92CF92DF92EF92FF9246
:1022D0000F931F93CF93DF93CDB7DEB728970FB639
:1022E000F894DEBF0FBECDBF9E838D836A3061F54B
:1022F000DC0155968C91B8E08B9F90011124ED8103
:10230000FE8181899289820F931F928B818B108A23
:10231000178681E090E028960FB6F894DEBF0FBED6
:10232000CDBFDF91CF911F910F91FF90EF90DF9084
:10233000CF90BF90AF909F908F907F906F905F9065
:102340004F903F902F9008956D3019F32D813E816D
:1023500038872F83D9011F960D911C915097003813
:1023600011050CF07CC05196AD90BC90B0E4AB165A
:10237000B1040CF074C0F901258825E0C801229E43
:10238000800D911D1124181619060CF068C0622CDE
:10239000712CC30133E0880F991F3A95E1F78A0D3C
:1023A0009B1D181619060CF05AC0F489FB83AF81E7
:1023B000B8855396BC91BC83629FB0011124FB0188
:1023C000ED54FD4E2F011982F2018491F981F5300F
:1023D00009F480E0450128E02A83A82FB0E0BE83FD
:1023E000AD833C8080FF3B80311004C0BB81EC8119
:1023F000BE17F9F078018E2D801B8215D0F4D12CF8
:10240000C12CC21490F4F0E8EF16F10450F4B601B8
:10241000680D791D6034710520F4432DC7010E94B9
:1024200042112FEFC21AD20AECCF3FEFE31AF30AA0
:10243000E2CF8D819E81959587959A8191509A835F
:10244000860C971C9111C9CFA981AF5FA983BFEFFB
:102450004B1A5B0A060D171DA63009F0B5CFEF81A8
:10246000F8852589422F50E087859089F6E02F9FD7
:10247000800D911D1124AF81B88550969C938E9349
:102480001F9756962C915697222309F442CF6AEF54
:1024900064039001659F300D112420583F4F281789
:1024A00039070CF036CFED91FC9111970190F08136
:1024B000E02D6AE0CD0109952CCF0895089590E0B4
:1024C00080E00895FB0101900020E9F73197AF010A
:1024D000461B570BDC01ED91FC910280F381E02D4E
:1024E00009940F931F93CF93DF93CCE1D7E082E061
:1024F0008D8B87E190E0988B8F8787E090E09A8BB7
:10250000898B6BE671E0CE010E94621285E090E05B
:10251000988B8F878AE190E09A8B898B63E771E0D3
:10252000CE010E94621281E08D8BC7E0D7E004E00B
:1025300010E01E870D871C870B8780E390E0988B47
:102540008F876EE771E0CE010E9462121E870D87B1
:102550001C870B8788E390E0988B8F8767E971E091
:10256000CE01DF91CF911F910F910C9462128F9247
:102570009F92AF92BF920F931F93CF93DF93CDB7EC
:10258000DEB7A1970FB6F894DEBF0FBECDBF19A27C
:10259000423008F44AE08E010F5D1F4F842E912CCB
:1025A000B12CA12CA50194010E94CF1DE62FB901E9
:1025B000CA01EA3044F5E05DD801EE938D01232B8A
:1025C000242B252B79F790E080E0109769F0FD012E
:1025D00001900020E9F73197AF014A1B5B0BBD0169
:1025E0008CE197E00E94100FA1960FB6F894DEBF21
:1025F0000FBECDBFDF91CF911F910F91BF90AF90D4
:102600009F908F900895E95CD7CFCF92DF92EF92A1
:10261000FF92CF93DF936C01990FEE08FF08F7FE4E
:1026200019C06DE28CE197E00E945A11EC01662717
:102630007727CB016C197D098E099F094AE00E941A
:10264000B7128C0F9D1FDF91CF91FF90EF90DF901D
:10265000CF9008954AE0C701B601DF91CF91FF9076
:10266000EF90DF90CF900C94B7120F931F93CF93FE
:10267000DF93EC018B0188E090E090932C0780932E
:102680002B0770932E0760932D07CC33D10554F59B
:10269000CA30D10584F460EB71E08CE197E00E94D0
:1026A00062128EE090E090932C0780932B0710939A
:1026B0002E0700932D07CE010E9405138AE190E0BA
:1026C00090932C0780932B0710932E0700932D07D0
:1026D00062EB71E08CE197E0DF91CF911F910F9158
:1026E0000C946212C83582E0D80784F460EB71E084
:1026F0008CE197E00E9462128EE090E090932C07AC
:1027000080932B0710932E0700932D07CE016CE3C7
:1027100070E00E94001ECB010E9405138AE190E048
:1027200090932C0780932B0710932E0700932D076F
:102730006AEB71E0EC9771F261EC71E0CBCF0E9433
:102740002E1E0C94871DFF920F931F93CF93DF9340
:10275000EC01F62E08811981C8010E94871DF81628
:1027600021F06F2DC8010E948F1DCE01DF91CF9106
:102770001F910F91FF9008951F920F920FB60F9225
:1027800011248F939F938091E1009091E100937FBA
:102790009093E10083FF0FC01092E90091E09093C5
:1027A000EB001092EC0092E39093ED001092B602D1
:1027B00098E09093F00082FF22C093E09093E900AC
:1027C0009091F200992319F09AE39093E800909188
:1027D000A702992341F09091A70291509093A702EC
:1027E000911101C05D9A9091B502992341F09091A9
:1027F000B50291509093B502911101C0289A84FFBF
:1028000018C08091E2008E7E81608093E20080910A
:10281000E1008F7E8093E1008091A8028E7E80612E
:102820008093A8029F918F910F900FBE0F901F90E1
:10283000189580FFF7CF8091E2008E7E80618093B3
:10284000E2008091E1008E7E8093E1008091A802F9
:102850008E7E8160E5CF1F920F920FB60F921124EA
:10286000CF92DF92EF92FF920F931F932F933F939C
:102870004F935F936F937F938F939F93AF93BF9388
:10288000EF93FF93CF93DF93CDB7DEB76C97DEBFA7
:10289000CDBF1092E9008091E80083FF25C068E079
:1028A000CE0145960E94030F82EF8093E8008D8948
:1028B00087FF39C09091E80090FFFCCF982F907669
:1028C00009F034C19E894F89588D2F89F88C911158
:1028D00031C0803861F58091A6028093F10010929A
:1028E000F1008EEF8093E8006C960FB6F894DEBF8F
:1028F0000FBECDBFDF91CF91FF91EF91BF91AF910F
:102900009F918F917F916F915F914F913F912F9107
:102910001F910F91FF90EF90DF90CF900F900FBE1F
:102920000F901F9018959EEF9093E800C7CF1092DC
:10293000F100D5CF913059F48111D3CF41305105F9
:1029400081F68091A6028D7F8093A602CACF933034
:1029500049F48111C6CF4130510519F68091A60284
:102960008260F2CF953041F48091E80080FFFCCF87
:1029700020682093E300B5CF963009F0A9C00B8DF5
:102980001C8D22E01092E9001092A4021092A30282
:10299000F2122EC01092A2021092A1020E94D20E38
:1029A0001F8299E09983FA8291E09E8390EA98874A
:1029B0009AEF99872091A3023091A402275F3F4F9D
:1029C0003C832B838D831092E9001092A402109215
:1029D000A3021093A2020093A10249E050E0BE01BD
:1029E0006F5F7F4F80E00E94AC0E0E94D20E79CFC5
:1029F0001093A2020093A1020E94E90DDC0112963D
:102A00000D911C910115110509F451C1D801ED91E9
:102A1000FC910480F581E02DBE016B5E7F4FC80103
:102A20000995009709F03EC1F80100851185EACFAC
:102A3000F3E0FF120EC08F89882309F440C0823072
:102A400061F440E860E180EC9AE10E94A7168111F0
:102A500048CF81E28093EB0047CF813029F440E8F2
:102A60006BE084EB9AE1F1CF833099F70E94E90D96
:102A7000DC011296ED90FC908E010F5F1F4F6801F4
:102A8000E114F10479F0D701ED91FC910680F78112
:102A9000E02DB801C7010995080F111DF701E08469
:102AA000F184EECFD8011C92F60101900020E9F7E5
:102AB0003197BF016C197D0940E0C601C6CF6EE9B0
:102AC0007AE1FB01449150E080E80E94AC0E09CF0E
:102AD000973009F4BECF983021F481E08093F10063
:102AE00000CF993009F0FDCE837009F0B2CFE3E357
:102AF000F1E081E031E096E32191222371F08093AF
:102B0000E9003093EB00DF0111972C912093EC004A
:102B10009093ED008F5F873079F78EE78093EA001E
:102B20001092EA008F898093B602DBCE8B8D9C8D4C
:102B30001092E9001092A4021092A3029093A202B4
:102B40008093A102898D811192C08E899D89913ACD
:102B500049F4813209F07DCF47E050E06EE071E04A
:102B600080E0B3CF913209F074CF833269F48F895A
:102B7000988DB0E0A0E080930A0190930B01A093A0
:102B80000C01B0930D01ADCE803269F48091E80064
:102B900082FFFCCF67E08EE091E00E94030F8BEF95
:102BA0008093E8009ECE823209F09BCE8F8980937D
:102BB0001501EEEFFFE7859194918B3F9C4D51F10C
:102BC000E0E0F8E080910E0190910F01A0911001DA
:102BD000B0911101803B9440A105B105F1F48091C1
:102BE000150180FD1AC0EE3F8AE0F80789F587E7F6
:102BF00097E791838083809160008093A50288E1AC
:102C00009BE00FB6F894A895809360000FBE909358
:102C1000600067CEEEEFFAE0D5CF808191818737F3
:102C2000974709F05ECEA8958091600088618093F7
:102C300060008091A50280936000EE3F2AE0F207D9
:102C400089F08091FE0A9091FF0A9183808349CE9A
:102C5000808191818737980751F29093FF0A809382
:102C6000FE0AC5CF1092FF0A1092FE0A3ACE0E94C9
:102C7000E90DDC0112960D911C910115110509F465
:102C8000E8CED801ED91FC910190F081E02DBE01DC
:102C90006B5E7F4FC8010995811123CEF801008535
:102CA0001185EBCF181619060CF41BCED2CEF1E02D
:102CB000FF12BECE62EA7AE104CF1F920F920FB6E6
:102CC0000F9211242F933F938F939F93AF93BF93B2
:102CD0008091330290913402A0913502B091360276
:102CE00030912E0223E0230F2D3758F50196A11DB8
:102CF000B11D20932E028093330290933402A0934F
:102D00003502B093360280912F0290913002A0914B
:102D10003102B09132020196A11DB11D80932F02A4
:102D200090933002A0933102B0933202BF91AF91E1
:102D30009F918F913F912F910F900FBE0F901F90F9
:102D4000189526E8230F0296A11DB11DD2CFEF9250
:102D5000FF920F931F93CF93DF93F82E192FE62E38
:102D6000042F81E0860F880F0E947E0E83E00E9470
:102D70007E0ECF2DD12FEC0EFD2EF11CCE15DF05D2
:102D8000B9F007FF13C0FE0184910E947E0E182F38
:102D900080E00E947E0E812321968111EFCFDF918A
:102DA000CF911F910F91FF90EF9008958881EDCF03
:102DB00081E0F5CF0F931F93CF93DF938C0181E0D8
:102DC00090E00E94A11380FF32C08AE090E00E9450
:102DD000A1139FEF980F9E3F50F522E330E0D801FA
:102DE00050963C932E931F9728E330E052963C93E5
:102DF0002E935197CBE0D0E0D801ED91FC9101905A
:102E0000F081E02D682FC8010995CE010E94A11321
:102E10002196C131D10581F780E00E94940D88EEA2
:102E200093E0DF91CF911F910F910C943511DF91B9
:102E3000CF911F910F91089504970C94DA16E7EB48
:102E4000F2E01382128288EE93E0A0E0B0E0848387
:102E50009583A683B7838DE391E0918380838FEF81
:102E60009FEF95878487ECE1F7E013821282118649
:102E7000128680E183871086178215868BE591E0A4
:102E80009183808389E691E095838483108A1786F5
:102E9000128A118A81E0838B148A858B168AE7E077
:102EA000F7E0138212822FE431E03183208327E0A0
:102EB00033E03683258320E830E03087278320E421
:102EC00030E03287218795E0948B838B16861586B8
:102ED000108A17861486138681E090E0928B818B8E
:102EE00014820895CF93DF9300D000D0CDB7DEB722
:102EF000789484B5826084BD84B5816084BD85B5D5
:102F0000826085BD85B5816085BD80916E008160E0
:102F100080936E0010928100809181008260809386
:102F20008100809181008160809381008091800088
:102F300081608093800080919100826080939100F5
:102F400080919100816080939100809190008160D8
:102F5000809390008091C10084608093C100809133
:102F6000C10082608093C1008091C1008160809324
:102F7000C1008091C30081608093C3008091C00034
:102F800082608093C0008091C20081608093C20003
:102F900080917A00846080937A0080917A008260C8
:102FA00080937A0080917A00816080937A0080918A
:102FB0007A00806880937A001092B6021092A6027E
:102FC0001092A8028091D70081608093D70080EA98
:102FD0008093D80089B5806189BD89B5826089BD3B
:102FE00009B400FEFDCF61E070E080E090E00E9457
:102FF000620F8091D8008F7C80618093D80080918F
:10300000E000807F8093E0008091E1008E7E8093DD
:10301000E1008DE08093E200559A209A81EC809344
:103020007C0085B1806F85B984B1877E84B984B115
:10303000876E84B95E9A5F988AB1806D8AB9769AF4
:103040006E9881B3806F81BB899880B38D7080BB8F
:1030500080E58CBD81E08DBD85E090E00E9435115A
:103060005F9A85E090E00E9435115E985C98E3E2FB
:10307000F9E180E399E124912EBD00000DB407FE33
:10308000FDCF31968E179F07B1F75C9A81E8809348
:1030900064008091650081608093650080E00E94FB
:1030A000940D0E943A1102E010E087FF15C05C9871
:1030B00085EA8EBD00000DB407FEFDCF5C9A2E9808
:1030C0002F982D988091640080628093640081E045
:1030D00083BF889513BEFCCF0E943A1182FF40C087
:1030E0002D980E943A1184788438C1F40E943311DB
:1030F00088EC90E00E9435112F981A8309836FEFB6
:10310000CE0101960E94A31384EF91E00E94351135
:103110002F9A0E943A1184788438D9F30E943A1188
:1031200084718431C1F40E94331188EC90E00E94D4
:1031300035112E981A83098360E0CE0101960E9412
:10314000A31384EF91E00E9435112E9A0E943A1148
:1031500084718431D9F388EC90E00E943511BCCFA2
:103160000E94331182E090E00E94A113882309F4A9
:10317000BEC03E9A3F9A81E090E00E94A113082FC2
:103180000470502E81FF12C001112E9800EF1FEF26
:1031900068E0A62EB12C7CE6E72EF12C0E943A11B5
:1031A00086FFA8C02E9A2F9A0E94331182E390E0E6
:1031B0000E9435110E943A118111F8CF84E6809364
:1031C0002707109290008AE080939100809164001C
:1031D0008E7F8093640080917A00806480937A006F
:1031E00080917A0086FDFCCF0091780010917900E3
:1031F0000E943D0FAB01BC01C801B0E0A0E0DC01C2
:10320000992788278C019D01040F151F261F371F42
:10321000C901B80120916400216020936400611508
:1032200071058105910511F00E94771D80E190E004
:103230000E94A113182F81E190E00E94A1131F3476
:1032400019F4823409F4F5C080E190E09A8389830F
:103250006FE4CE0101960E94A31381E190E09A836E
:10326000898362E4CE0101960E94A313609101015B
:1032700082E190E09A838983CE0101960E94A31394
:103280006091000183E190E09A838983CE010196E9
:103290000E94A3131092320755E9252E312C412CA0
:1032A000512C6CE3662E712C78E0E72EF12C8FB751
:1032B000F89440913302509134026091350270913C
:1032C00036028FBF80912807142F181B812F9091F1
:1032D0002907992309F4EAC010932A0710922907B5
:1032E00080E090E0892B19F30E940000E0CF3E9827
:1032F0003F9841CF552029F00430110511F42E9A42
:103300002F9881E00E94940D980117FF04C0222796
:103310003327201B310B27703327C80117FD079671
:1033200053E0959587955A95E1F717FF05C00197EA
:10333000A501421B530B9A01BC017695762F662797
:1033400077956795695F7C4FB0E0A0E01501221A80
:10335000330A8F3F5FEF95070CF446C048E550E015
:10336000FD01E553F74E4F013B01F0E86F0E711C74
:103370008F3F9807C9F0F401E41BF50B44906701F7
:10338000C41AD50AC60ED71EE42DF0E0022E02C0E4
:10339000EE0FFF1F0A94E2F7FC83EB83F6014080F7
:1033A000FB814F2AF601408221153105C9F0F40155
:1033B000E41BF50B44906701C41AD50AC60CD71C50
:1033C000E42DF0E0022C02C0F595E7950A94E2F7AF
:1033D000FC83EB83F6014080FB814F2AF60140829B
:1033E0004150510909F0C4CF0196A85ABF4F605807
:1033F0007F4FA03BB10509F0ACCF80E00E94940D57
:103400008FE090E00E9435110F5F1F4F09311105C9
:1034100009F0C4CE552011F02F9A2D9880E991E043
:103420000E9435110E9433118CE197E00E94DA1658
:10343000BDCE82E190E00E94A113809301018C3007
:1034400018F08BE080930101E0910101F0E0EE0FB4
:10345000FF1FE65EFE4F208131814AE0429FC0019E
:10346000439F900D1124909305018093040183E103
:1034700090E00E94A113809300018C3018F08BE043
:1034800080930001E0910001F0E0EE0FFF1FE65E87
:10349000FE4F208131814AE0429FC001439F900D41
:1034A00011249093070180930601F4CE9091270791
:1034B000191748F48F5F891708F012CF81E083BF96
:1034C000889513BE0DCF81E080932907409328078C
:1034D000809123079091240701969093240780936D
:1034E000230780919F029091A00201969093A002E1
:1034F00080939F0280919B02882339F081508093B2
:103500009B02811102C01092900080E0E7E0F3E09E
:1035100081118FEF00248193819381938193039490
:10352000D1F710922E0710922D0710922C071092AF
:103530002B0780912507809326070E943A11182FA8
:103540008093250780919E028130B9F050F082303F
:1035500009F4E5C0833009F4EDC080E00E94940DC9
:10356000BFCE0E94711280919F029091A0024E974F
:10357000A0F381E080939E02F0CF0091260702FD28
:1035800002C012FD3BC080E20E94A30D811187C0E2
:1035900080910801909109010196B1F080919F02FC
:1035A0009091A002209106013091070182179307A4
:1035B00058F403FD26C013FF24C02091040130916C
:1035C000050182179307E8F01092A00210929F0263
:1035D0000E94281DA20191010E949D1D7093090166
:1035E00060930801209102013091030126173707EB
:1035F00079F3709303016093020103C082E080932A
:103600009E02E0910801F0910901EE0FFF1FE05DBD
:10361000F64E6591749187E392E00E94801DE7E386
:10362000F2E001900020E9F7329780818E3251F06C
:10363000813241F08F3331F069EC71E087E392E041
:103640000E94331EA7E3B2E050E040E030E020E00B
:1036500061E070E08D91882331F18032D9F4F90175
:10366000E95CFD4FCF01821B930B87539240118180
:10367000012F0F7D19F031961A30A1F7840F951F95
:10368000459744F0FD0131974AE040836F5F7F4FDB
:1036900050E040E04F5F5F4F2F5F3F4FDBCF109216
:1036A0009D0283E0ACCF60939C0210922C07109295
:1036B0002B0710922E0710922D0767E372E08CE122
:1036C00097E00E946212809104019091050120917F
:1036D0009F023091A0022817390708F43ECF2091AD
:1036E0000601309107018217930708F036CF8091C9
:1036F0009C02883008F031CF109215071092140701
:103700001092130710921207709217076092160713
:103710006BEC71E087E097E00E9462121ECF84E0BC
:103720000E94A30D882319F081E080939E020E94DD
:10373000711213CF88E00E94A30D882309F4B9C049
:1037400011E010939B0280E4809390008FEC97E04F
:10375000909399008093980060910101E62FF0E02A
:10376000EE0FFF1FE65EFE4F20813181EAE0E29F0F
:10377000C001E39F900D11249093050180930401F3
:10378000E0910001F0E0EE0FFF1FE65EFE4F2081AA
:103790003181FAE0F29FC001F39F900D11249093C4
:1037A00007018093060182E190E09A838983CE012C
:1037B00001960E94A3136091000183E190E09A8337
:1037C0008983CE0101960E94A31310939E0210924A
:1037D0002C0710922B0710922E0710922D0763EEE4
:1037E00071E08CE197E00E946212E0910101F0E04B
:1037F000EE0FFF1FE65EFE4F60E170E08081918179
:103800000E943513F0921507E0921407F092130707
:10381000E09212070AE110E01093170700931607D1
:1038200066EF71E087E097E00E946212E09100018C
:10383000F0E0EE0FFF1FE65EFE4F64E270E0808175
:1038400091810E943513F0921507E0921407F092CF
:103850001307E09212072EE230E03093170720930F
:10386000160769E072E087E097E00E94621200911B
:103870009D0234E1039F80011124480140E1840E40
:10388000911CD12CC12C025E1F4F5401C801013480
:10389000110514F080E490E0A816B9060CF075C08C
:1038A00041E0B501C6010E9442115FEFA51AB50AB9
:1038B000EDCF84E00E94A30D882321F081E0809366
:1038C0009E0285CF80E80E94A30D882341F080915D
:1038D0009D02882309F47BCF10929D0278CF80E16E
:1038E0000E94A30D882341F080919D0281116FCF2A
:1038F00081E080939D026BCF80E20E94A30D88231C
:10390000F9F080919D02811109C080910101882305
:1039100009F45DCF81508093010159CF813009F0C6
:1039200056CF80910001882319F0815080930001C7
:103930008091000190910101891708F048CFEBCFE9
:1039400080E40E94A30D882309F441CF80919D0259
:10395000811111C0809101018B3018F48F5F809329
:1039600001018091010190910001981708F02FCF7B
:10397000809300012CCF813009F029CF8091000184
:103980008B3008F024CF8F5FF3CF8FEFC81AD80A9F
:1039900094E0C916D10409F078CF1092150710925F
:1039A0001407109213071092120770921707609273
:1039B00016076DE172E0AECE8F929F92AF92BF92EA
:1039C000CF92DF92EF92FF92CF93DF93EC01688169
:1039D00079818A819B81611571058105910521F4A9
:1039E00064E279ED8BE597E02DE133EF41E050E0C3
:1039F0000E949D1D49015A019B01AC01A7EAB1E457
:103A00000E94BC1D6B017C01ACEEB4EFA5019401DA
:103A10000E94CA1DC60ED71EE81EF91EF7FE06C07C
:103A200081E0C81AD108E10880E8F80AC882D98282
:103A3000EA82FB82C701B6019F77DF91CF91FF90A9
:103A4000EF90DF90CF90BF90AF909F908F900895B0
:103A50008F929F92AF92BF92CF92DF92EF92FF929E
:103A600060911601709117018091180190911901D0
:103A7000611571058105910521F464E279ED8BE50D
:103A800097E02DE133EF41E050E00E949D1D490198
:103A90005A019B01AC01A7EAB1E40E94BC1D6B0175
:103AA0007C01ACEEB4EFA50194010E94CA1DC60EC4
:103AB000D71EE81EF91EF7FE06C081E0C81AD1081D
:103AC000E10880E8F80AC0921601D0921701E0924E
:103AD0001801F0921901C701B6019F77FF90EF908E
:103AE000DF90CF90BF90AF909F908F90089560939C
:103AF000160170931701809318019093190108958E
:103B0000FB01DC0105900D920020E1F70895F99981
:103B1000FECF92BD81BDF89A992780B50895262FD2
:103B2000F999FECF1FBA92BD81BD20BD0FB6F894A2
:103B3000FA9AF99A0FBE01960895052E97FB1EF486
:103B400000940E94B41D57FD07D00E94CF1D07FCB2
:103B500003D04EF40C94B41D5095409530952195AA
:103B60003F4F4F4F5F4F08959095809570956195A9
:103B70007F4F8F4F9F4F08950E94F11DA59F900D7D
:103B8000B49F900DA49F800D911D11240895B7FF3F
:103B90000C94BC1D0E94BC1D821B930B0895A1E2D6
:103BA0001A2EAA1BBB1BFD010DC0AA1FBB1FEE1FB7
:103BB000FF1FA217B307E407F50720F0A21BB30B02
:103BC000E40BF50B661F771F881F991F1A9469F77E
:103BD00060957095809590959B01AC01BD01CF01DA
:103BE0000895A29FB001B39FC001A39F700D811DD6
:103BF0001124911DB29F700D811D1124911D0895F6
:103C000097FB072E16F4009407D077FD09D00E9489
:103C1000141E07FC05D03EF4909581959F4F0895A2
:103C2000709561957F4F0895AA1BBB1B51E107C09A
:103C3000AA1FBB1FA617B70710F0A61BB70B881F3C
:103C4000991F5A95A9F780959095BC01CD010895CB
:103C5000EE0FFF1F0590F491E02D099481E090E0B4
:103C6000F8940C943E1EFB01DC010D900020E9F756
:103C7000119701900D920020E1F70895F894FFCF7D
:103C80000502FFFF2C010807FFFFFFFFFFFF00E118
:103C9000000000000000010000000A0014001E00E7
:103CA0003C007800B400F0002C0158028403B004FA
:103CB000080700C1808100000000000000FD0D9594
:103CC0000F1E0E130E640E220E400E000000008820
:103CD00010100F5F125E12000000005A11100F5FEB
:103CE000125E12DA16FCFF00001C174F424C4951BD
:103CF00055450053545241544547494553003130CE
:103D0000302B20574F5254485748494C452044497E
:103D10004C454D4D41530054484E5820422E2045AD
:103D20004E4F202B20502E205343484D49445400E1
:103D300030007365636F6E6473006D696E757465D2
:103D4000006D696E75746573002E0041204E4557F5
:103D5000202D204220494E464F202D204C20434FFD
:103D60004E46004F424C4951554520504152414D1D
:103D70004554455253004245464F5245204E455703
:103D800020524551554553540053545241544547D0
:103D9000592045585049524154494F4E00412053F3
:0E3DA000415645202D20422045584954000030
:00000001FF
